:100000000C9437000C945F000C945F000C945F001C
:100010000C945F000C945F000C945F000C945F00E4
:100020000C945F000C945F000C945F000C945F00D4
:100030000C945F000C945F000C945F000C945F00C4
:100040000C94CD030C945F000C94CC040C941E050E
:100050000C945F000C945F000C945F000C945F00A4
:100060000C945F000C945F0030038D06290311246B
:100070001FBECFEFD8E0DEBFCDBF11E0A0E0B1E002
:10008000EEECF7E102C005900D92A235B107D9F769
:1000900012E0A2E5B1E001C01D92AD32B107E1F777
:1000A00010E0CCE6D0E004C02297FE010E949F0B36
:1000B000C836D107C9F70E94E4060C94DA0B0C94F9
:1000C0000000FB01DC0102C001900D924150504044
:1000D000D8F70895FB01DC0101900D920020E1F7B3
:1000E0000895AEE0B0E0E7E7F0E00C94B10B0D89C5
:1000F0001E8986E08C831A8309838FEF9FE79E8396
:100100008D839E01275E3F4FCE0101966F89788DCA
:10011000A9010E9495002F813885020F131FF80155
:1001200010822E96E4E00C94CD0BABE0B0E0EBE94E
:10013000F0E00C94A30B3C012B015A01FC01178247
:100140001682838181FD03C06FEF7FEFC6C19AE005
:10015000892E1E010894211C311CF3012381F20118
:1001600023FD859123FF81912F01882309F4B2C1DA
:10017000853239F423FD859123FF81912F0185324A
:1001800029F490E0B3010E948802E7CF982FFF2462
:10019000EE249924FFE1FF15D0F09B3269F09C32E8
:1001A00028F4903259F0933291F40EC09D3249F008
:1001B000903369F441E024C052E0F52A84E0F82A43
:1001C00028C098E0F92A25C0E0E1FE2A22C0F7FC09
:1001D00029C0892F80538A3070F4F6FE05C0989CA0
:1001E000902C1124980E15C0E89CE02C1124E80EE8
:1001F000F0E2FF2A0EC09E3229F4F6FC6BC140E407
:10020000F42A07C09C3619F450E8F52A02C0983643
:1002100049F4F20123FD959123FF91912F01992338
:1002200009F0B8CF892F8554833018F0805283307D
:1002300038F444E050E0A40EB51E5FE359830FC0CC
:10024000933631F0933779F0933509F056C020C0DA
:10025000F5018081898342E050E0A40EB51E610162
:1002600001E010E012C0F501C080D180F6FC03C0AF
:100270006FEF7FEF02C0692D70E042E050E0A40E06
:10028000B51EC6010E947D028C015FE7F52214C0F5
:10029000F501C080D180F6FC03C06FEF7FEF02C094
:1002A000692D70E042E050E0A40EB51EC6010E9428
:1002B00072028C0150E8F52AF3FE07C01AC080E2F2
:1002C00090E0B3010E948802EA948E2D90E0081716
:1002D0001907A8F30EC0F601F7FC8591F7FE81918E
:1002E0006F0190E0B3010E948802E110EA9401508E
:1002F00010400115110579F7EAC0943611F09936CE
:1003000069F5F7FE08C0F5012081318142815381F2
:1003100084E090E00AC0F501808191819C0144272E
:1003200037FD4095542F82E090E0A80EB91E9FE65D
:10033000F92257FF09C050954095309521953F4FC0
:100340004F4F5F4FE0E8FE2ACA01B901A1012AE040
:1003500030E00E94B402D82ED21840C0953729F45C
:100360001F2D1F7E2AE030E01DC01F2D197F9F36F4
:1003700061F0903720F4983509F0ACC00FC0903789
:1003800039F0983709F0A6C004C028E030E00AC070
:10039000106114FD146020E130E004C014FD16600B
:1003A00020E132E017FF08C0F50160817181828190
:1003B000938144E050E008C0F50180819181BC0147
:1003C00080E090E042E050E0A40EB51EA1010E9442
:1003D000B402D82ED2188FE7F82EF122F6FE0BC009
:1003E0005EEFF522D91438F4F4FE07C0F2FC05C024
:1003F0008FEEF82202C01D2D01C0192DF4FE0DC094
:10040000FE01ED0DF11D8081803319F499EEF92282
:1004100008C01F5FF2FE05C003C08F2D867809F06B
:100420001F5F0F2DF3FC14C0F0FE0FC01E1510F05F
:100430009D2C0BC09D2C9E0C911A1E2D06C080E297
:1004400090E0B3010E9488021F5F1E15C0F304C034
:100450001E1510F4E11A01C0EE2404FF0FC080E362
:1004600090E0B3010E94880202FF1DC001FD03C09D
:1004700088E790E00EC088E590E00BC0802F86787A
:1004800091F001FF02C08BE201C080E2F7FC8DE237
:1004900090E0B3010E94880206C080E390E0B301BF
:1004A0000E9488029A94D914C0F3DA94F101ED0DF8
:1004B000F11D808190E0B3010E948802DD20A9F740
:1004C00006C080E290E0B3010E948802EA94EE2028
:1004D000C1F743CEF30166817781CB012B96E2E130
:1004E0000C94BF0BFC010590615070400110D8F7CF
:1004F000809590958E0F9F1F0895FC01615070406C
:1005000001900110D8F7809590958E0F9F1F089548
:100510000F931F93CF93DF938C01EB018B8181FFAE
:100520001BC082FF0DC02E813F818C819D812817C9
:10053000390764F4E881F9810193F983E88306C0FF
:10054000E885F985802F0995892B31F48E819F816B
:1005500001969F838E8302C00FEF1FEFC801DF91CA
:10056000CF911F910F910895FA01AA27283051F1D8
:10057000203181F1E8946F936E7F6E5F7F4F8F4FD4
:100580009F4FAF4FB1E03ED0B4E03CD0670F781F33
:10059000891F9A1FA11D680F791F8A1F911DA11D18
:1005A0006A0F711D811D911DA11D20D009F4689451
:1005B0003F912AE0269F11243019305D3193DEF6F9
:1005C000CF010895462F4770405D4193B3E00FD0AF
:1005D000C9F7F6CF462F4F70405D4A3318F0495D9A
:1005E00031FD4052419302D0A9F7EACFB4E0A6957D
:1005F0009795879577956795BA95C9F7009761059F
:10060000710508959B01AC010A2E069457954795F4
:1006100037952795BA95C9F7620F731F841F951FE9
:10062000A01D08958130910551F46F5F7F4F81F4D3
:100630008CE591E060E071E00E94FD070895892B50
:1006400039F46F5F7F4F21F48CE591E00E9416082A
:10065000089580E090E06FEF7FEF0E94120308950D
:1006600081E090E06FEF7FEF0E9412030895EF9218
:10067000FF920F931F9380E00E94A904AA2797FD81
:10068000A095BA2FBC01CD010E94650A609352016A
:1006900070935301809354019093550181E00E941F
:1006A000A9048C01909357018093560160915201E7
:1006B00070915301809154019091550120E030E0F8
:1006C00040EA50E40E94F10A20E030E040E85AE3BA
:1006D0000E94F10A20E030E048EC52E40E94F10A66
:1006E0000E94320A70935901609358012DB73EB7AA
:1006F0002A5030400FB6F8943EBF0FBE2DBFEDB765
:10070000FEB7319682E6E82E81E0F82EADB7BEB78F
:100710001296FC92EE92119729E131E03383228305
:1007200020915A0130915B0135832483778366835E
:10073000118700870E9471002DB73EB7265F3F4F9B
:100740000FB6F8943EBF0FBE2DBF07E012E0C80100
:10075000B7010E94810768EE73E080E090E00E949C
:100760001504C8016CE571E00E94510780915A019F
:1007700090915B01019690935B0180935A011F91C8
:100780000F91FF90EF90089587E092E040E855E2E6
:1007900060E070E00E94590508951F920F920FB615
:1007A0000F9211242F933F938F939F93AF93BF93F7
:1007B00080917A0190917B01A0917C01B0917D01A3
:1007C00030917E010196A11DB11D232F2D5F2D3784
:1007D00020F02D570196A11DB11D20937E0180931D
:1007E0007A0190937B01A0937C01B0937D0180916D
:1007F000760190917701A0917801B09179010196ED
:10080000A11DB11D8093760190937701A09378018B
:10081000B0937901BF91AF919F918F913F912F91AB
:100820000F900FBE0F901F9018959B01AC017FB7E2
:10083000F8948091760190917701A0917801B09120
:10084000790166B5A89B05C06F3F19F00196A11DFF
:10085000B11D7FBFBA2FA92F982F8827860F911D12
:10086000A11DB11D62E0880F991FAA1FBB1F6A95C9
:10087000D1F7BC012DC0FFB7F8948091760190911B
:100880007701A0917801B0917901E6B5A89B05C0E8
:10089000EF3F19F00196A11DB11DFFBFBA2FA92F7F
:1008A000982F88278E0F911DA11DB11DE2E0880FA2
:1008B000991FAA1FBB1FEA95D1F7861B970B885E6D
:1008C0009340C8F2215030404040504068517C4F26
:1008D000211531054105510571F60895789484B5C7
:1008E000826084BD84B5816084BD85B5826085BD2C
:1008F00085B5816085BDEEE6F0E080818160808312
:10090000E1E8F0E0108280818260808380818160F4
:100910008083E0E8F0E0808181608083E1EBF0E0BB
:10092000808184608083E0EBF0E08081816080835F
:10093000EAE7F0E080818460808380818260808348
:100940008081816080838081806880831092C10073
:100950000895982F8E3008F09E50977080913B013B
:100960008295880F880F807C892B80937C008091F2
:100970007A00806480937A0080917A0086FDFCCFB3
:100980002091780040917900942F80E030E0282B6E
:10099000392BC901089508951F920F920FB60F9237
:1009A00011242F933F934F938F939F93EF93FF9334
:1009B0008091C00082FD1DC04091C6002091BF0102
:1009C0003091C0012F5F3F4F2F7330708091C10174
:1009D0009091C2012817390771F0E091BF01F091A1
:1009E000C001E158FE4F40833093C0012093BF0106
:1009F00002C08091C600FF91EF919F918F914F911E
:100A00003F912F910F900FBE0F901F901895E0917E
:100A10001302F0911402E05CFF4F819191912081CB
:100A20003181805C9F4F821B930B60E470E00E94D9
:100A3000540B892B11F00E94CB0408951F920F9242
:100A40000FB60F9211242F933F938F939F93EF93A1
:100A5000FF9320910302309104028091050290914E
:100A600006022817390731F48091C1008F7D8093E9
:100A7000C10014C0E0910502F0910602ED53FE4F53
:100A80002081809105029091060201968F739070EB
:100A900090930602809305022093C600FF91EF9188
:100AA0009F918F913F912F910F900FBE0F901F90AC
:100AB0001895AF92BF92DF92EF92FF920F931F9320
:100AC000CF93DF93EC017A018B01DD24403081EE7E
:100AD000580780E0680780E0780711F0DD24D394A0
:100AE00091E0A92EB12CEC89FD89DD2069F0C501CA
:100AF00008A002C0880F991F0A94E2F7808360E083
:100B000079E08DE390E005C0108260E874E88EE142
:100B100090E0A80197010E94670B215030404040AF
:100B20005040569547953795279580E120303807F6
:100B300020F0DD2011F0DD24D6CFE889F98930835B
:100B4000EA89FB89208319A2EE89FF89408121E08F
:100B500030E0C9010C8C02C0880F991F0A94E2F79B
:100B6000482B4083EE89FF894081C9010D8C02C06A
:100B7000880F991F0A94E2F7482B4083EE89FF897A
:100B80004081C9010E8C02C0880F991F0A94E2F7B8
:100B9000482B4083EE89FF8980810F8C02C0220F91
:100BA000331F0A94E2F7209528232083DF91CF9109
:100BB0001F910F91FF90EF90DF90BF90AF9008953D
:100BC000DC011C96ED91FC911D97E05CFF4F81913B
:100BD000919120813181805C9F4F821B930B60E457
:100BE00070E00E94540B0895DC011C96ED91FC917D
:100BF0001D97E05CFF4F20813181E054F040DF0120
:100C0000AE5BBF4F8D919C9111972817390719F44E
:100C10002FEF3FEF07C08D919C91E80FF91F808166
:100C2000282F30E0C9010895DC011C96ED91FC915C
:100C30001D97E05CFF4F20813181E054F040DF01DF
:100C4000AE5BBF4F8D919C9111972817390719F40E
:100C50002FEF3FEF10C08D919C911197E80FF91F76
:100C600020818D919C91119701968F7390701196B0
:100C70009C938E9330E0C9010895DC0191968C918C
:100C80009197882339F05496ED91FC915597808186
:100C900086FFF9CF91961C920895CF93DF93EC01D4
:100CA000EE85FF85E05CFF4F20813181E054F0400C
:100CB0002F5F3F4F2F733070DF01AE5BBF4F8D91C1
:100CC0009C91119728173907D1F3E05CFF4F808181
:100CD0009181E054F040E80FF91F6083EE85FF85B5
:100CE000E05CFF4F31832083EE89FF89208181E022
:100CF00090E00F8C02C0880F991F0A94E2F7282B0E
:100D0000208381E089A3EC89FD89808180648083D0
:100D100081E090E0DF91CF91089510920A02109245
:100D2000090288EE93E0A0E0B0E080930B0290937C
:100D30000C02A0930D02B0930E0286E491E0909312
:100D40000802809307028FE791E09093140280934A
:100D5000130283EC91E0909316028093150285ECC8
:100D600090E0909318028093170284EC90E09093A7
:100D70001A028093190280EC90E090931C028093F9
:100D80001B0281EC90E090931E0280931D0282EC86
:100D900090E09093200280931F0286EC90E0909365
:100DA00022028093210284E08093230283E08093D7
:100DB000240287E08093250285E08093260281E06B
:100DC0008093270208950895CF93DF930E946E04C5
:100DD0000E94E3060E94C403C7E0D5E00E943703E7
:100DE0002097E1F30E940705F9CFCF92DF92EF92AF
:100DF000FF920F931F93CF93DF937C016B018A01C6
:100E0000C0E0D0E00FC0D6016D916D01D701ED912A
:100E1000FC910190F081E02DC7010995C80FD91F01
:100E2000015010400115110571F7CE01DF91CF91EE
:100E30001F910F91FF90EF90DF90CF900895CF9387
:100E4000DF93FB01EC01A881B9816081718144814C
:100E500055811296ED91FC9113970995DF91CF91F1
:100E60000895EF92FF920F931F938C01DC01ED9197
:100E7000FC910190F081E02D6DE009957C01D80195
:100E8000ED91FC910190F081E02DC8016AE0099597
:100E90009C012E0D3F1DC9011F910F91FF90EF90F6
:100EA0000895EF92FF920F931F937C010E941F07FA
:100EB0008C01C7010E9431079C01200F311FC9011D
:100EC0001F910F91FF90EF900895CF93DF93EC0166
:100ED0006115710519F420E030E00FC0DB010D90C1
:100EE0000020E9F71197A61BB70BE881F981028072
:100EF000F381E02DAD0109959C01C901DF91CF91EE
:100F00000895EF92FF920F931F937C010E94650753
:100F10008C01C7010E943107080F191FC8011F91DA
:100F20000F91FF90EF9008950F931F93CF93DF934E
:100F3000EC018B016F5F7F4F888199810E9451097D
:100F4000009711F480E005C0998388831B830A838E
:100F500081E0DF91CF911F910F910895CF93DF939F
:100F6000EC0188819981892B29F08A819B818617E0
:100F7000970760F4CE010E949407882341F08C818A
:100F80009D81892B19F4E881F981108281E0DF913C
:100F9000CF910895CF93DF93EC01888199810097D9
:100FA00011F00E94B908198218821D821C821B82CE
:100FB0001A82DF91CF910895EF92FF920F931F93C2
:100FC000CF93DF93EC017B018A01BA010E94AE0747
:100FD000882321F4CE010E94CA0707C01D830C8319
:100FE00088819981B7010E946A00CE01DF91CF917B
:100FF0001F910F91FF90EF900895CF93DF93EC0135
:10100000198218821B821A821D821C826115710549
:1010100051F0DB010D900020E9F71197A61BB70BEB
:10102000AD010E94DC07DF91CF910895FC01808122
:1010300091810E94B90808950F931F93CF93DF9376
:10104000BC018230910510F462E070E0E0912B0267
:10105000F0912C02A0E0B0E040E050E024C080819C
:10106000918186179707D0F08617970771F48281D0
:101070009381109729F013969C938E9312972CC00E
:1010800090932C0280932B0227C04115510519F033
:101090008417950718F4EF018D01AC01DF018281FF
:1010A00093819C01F9013097D1F641155105F9F072
:1010B000CA01861B970B8430910580F48A819B813D
:1010C0000115110521F0F8019383828304C09093E8
:1010D0002C0280932B02FE01329645C0FE01E80FE0
:1010E000F91F619371930297998388833CC0809123
:1010F000290290912A02892B41F480913E0190911E
:101100003F0190932A02809329024091400150911F
:1011100041014115510541F44DB75EB780913C0145
:1011200090913D01481B590B2091290230912A02D0
:1011300024173507B0F4CA01821B930B8617970753
:1011400080F0AB014E5F5F4F8417950750F0420F60
:10115000531F50932A0240932902F901619371931E
:1011600002C0E0E0F0E0CF01DF91CF911F910F913D
:101170000895CF93DF939C01009709F48FC0EC0191
:1011800022971B821A8260912B0270912C026115AA
:10119000710581F488819981820F931F2091290222
:1011A00030912A022817390739F5D0932A02C093C3
:1011B000290274C0DB0140E050E0AC17BD0708F124
:1011C000BB83AA83FE0121913191E20FF31FAE1779
:1011D000BF0779F48D919C911197280F391F2E5FCD
:1011E0003F4F3983288312968D919C9113979B834F
:1011F0008A834115510571F4D0932C02C0932B02C0
:101200004DC012968D919C911397AD01009711F0EE
:10121000DC01D3CFDA011396DC93CE931297FA0157
:1012200021913191E20FF31FCE17DF0769F4888116
:101230009981280F391F2E5F3F4FFA013183208398
:101240008A819B8193838283E0E0F0E0DB01129648
:101250008D919C911397009719F0BC01FD01F6CF79
:10126000AB014E5F5F4FDB018D919C91840F951F09
:101270002091290230912A022817390779F43097F2
:1012800029F410922C0210922B0202C013821282B7
:101290004250504050932A0240932902DF91CF914F
:1012A00008956F927F928F929F92AF92BF92CF924A
:1012B000DF92EF92FF920F931F93CF93DF938C01F6
:1012C000009729F4CB010E941C088C01BBC08EEF53
:1012D000E82E8FEFF82EE00EF11E4801860E971EC5
:1012E0008E149F0408F4ACC0D7014D915C91119706
:1012F00046175707B8F04530510508F4A3C0CA0196
:1013000004978617970708F49DC042505040461B2B
:10131000570BF401419351936D937C93CF010E943D
:10132000B90890C05B01A41AB50A3801640E751E95
:10133000A0912B02B0912C02CC24DD24E0E0F0E05F
:1013400047C0A615B705A9F5CD91DC911197CE013F
:1013500002968A159B0568F1CE018A199B090296AF
:1013600012962C91129713963C91059758F0F40120
:1013700022833383CA19DB09D183C083D7016D93DC
:101380007C9309C04E5F5F4F4C0F5D1FF701518387
:101390004083C901FC01C114D10431F0D601139678
:1013A000FC93EE9312974EC0F0932C02E0932B0225
:1013B00049C08D919C911197E817F90708F4FC0139
:1013C0006D0112968C91129713969C919C01D901F4
:1013D000109709F0B6CF8091290290912A028615C4
:1013E0009705E9F4E617F707D0F420914001309112
:1013F00041012115310541F42DB73EB780913C01E3
:1014000090913D01281B390B82169306C8F49092E7
:101410002A0280922902F7017183608313C0CB01F5
:101420000E941C08EC01009759F0D7014D915C9186
:10143000B8010E946100C8010E94B9088E0102C073
:1014400000E010E0C801DF91CF911F910F91FF9054
:10145000EF90DF90CF90BF90AF909F908F907F9054
:101460006F90089504D06894B111B5C0089598D0D4
:1014700088F09F5790F0B92F9927B751A0F0D1F07D
:10148000660F771F881F991F1AF0BA95C9F712C007
:10149000B13081F09FD0B1E008959CC0672F782FC4
:1014A0008827B85F39F0B93FCCF386957795679573
:1014B000B395D9F73EF490958095709561957F4FDF
:1014C0008F4F9F4F0895E89409C097FB3EF4909585
:1014D0008095709561957F4F8F4F9F4F9923A9F00D
:1014E000F92F96E9BB279395F6958795779567959C
:1014F000B795F111F8CFFAF4BB0F11F460FF1BC0E0
:101500006F5F7F4F8F4F9F4F16C0882311F096E972
:1015100011C0772321F09EE8872F762F05C0662320
:1015200071F096E8862F70E060E02AF09A95660FD9
:10153000771F881FDAF7880F9695879597F9089592
:1015400097F99F6780E870E060E008959FEF80EC76
:10155000089500240A941616170618060906089519
:1015600000240A9412161306140605060895092E7F
:101570000394000C11F4882352F0BB0F40F4BF2BEE
:1015800011F460FF04C06F5F7F4F8F4F9F4F08952E
:1015900057FD9058440F551F59F05F3F71F0479524
:1015A000880F97FB991F61F09F3F79F08795089509
:1015B000121613061406551FF2CF4695F1DF08C028
:1015C000161617061806991FF1CF86957105610545
:1015D00008940895E894BB2766277727CB0197F9ED
:1015E00008950BD0C4CFB5DF28F0BADF18F09523EB
:1015F00009F0A6CFABCF1124EECFCADFA0F3959FA1
:10160000D1F3950F50E0551F629FF001729FBB27E9
:10161000F00DB11D639FAA27F00DB11DAA1F649F95
:101620006627B00DA11D661F829F2227B00DA11D48
:10163000621F739FB00DA11D621F839FA00D611DCE
:10164000221F749F3327A00D611D231F849F600DEF
:10165000211D822F762F6A2F11249F5750408AF028
:10166000E1F088234AF0EE0FFF1FBB1F661F771FB4
:10167000881F91505040A9F79E3F510570F060CFF0
:10168000AACF5F3FECF3983EDCF38695779567959C
:10169000B795F795E7959F5FC1F7FE2B880F911DD2
:1016A0009695879597F9089597FB092E07260AD0F6
:1016B00077FD04D02ED006D000201AF470956195E5
:1016C0007F4F0895F6F7909581959F4F0895A1E279
:1016D0001A2EAA1BBB1BFD010DC0AA1FBB1FEE1FAC
:1016E000FF1FA217B307E407F50720F0A21BB30BF7
:1016F000E40BF50B661F771F881F991F1A9469F773
:1017000060957095809590959B01AC01BD01CF01CE
:101710000895AA1BBB1B51E107C0AA1FBB1FA61738
:10172000B70710F0A61BB70B881F991F5A95A9F78A
:1017300080959095BC01CD010895EE0FFF1F059097
:10174000F491E02D09942F923F924F925F926F9205
:101750007F928F929F92AF92BF92CF92DF92EF9241
:10176000FF920F931F93CF93DF93CDB7DEB7CA1BC2
:10177000DB0B0FB6F894DEBF0FBECDBF09942A88ED
:10178000398848885F846E847D848C849B84AA8495
:10179000B984C884DF80EE80FD800C811B81AA8122
:1017A000B981CE0FD11D0FB6F894DEBF0FBECDBFED
:1017B000ED01089510E0CCE6D0E004C0FE010E94E7
:0E17C0009F0B2296CE36D107C9F7F894FFCFC3
:1017CE002D2D2D2D2D2D2D2D2D2D2D2D2D2D2D2D3B
:1017DE002D2D2D2D2D2D2D2D007B226E6F223A2598
:1017EE00642C202274656D70223A25642C202262AE
:1017FE007269676874223A25647D000180002D02AB
:10180E000000000000004D06F506E0051406F40584
:02181E003D0685
:00000001FF
